:03000000022CE3EC
:0C2CE300787FE4F6D8FD75813A022B1CC6
:100003000070880808887000001C222121221C002F
:1000130000F008080810E0000001122222110F006E
:10002300C0300808080838000718202020100800EE
:1000330000F88888880808000019202020110E0085
:1000430000001010F8000000000020203F202000D6
:1000530000E0108888900000000F112020201F006E
:1000630008F8888888887000203F2000030C30201F
:1000730008F808080810E000203F202020100F0097
:1000830000000000E0000000000101010F01010178
:100093000000000000000000010101010000000059
:1000A3000000000080808080BDBDBDBDF7F7F7F77D
:1000B3003D3D3D3D00000000818181810707070729
:1000C30001010101F0F0F0F0BDBDBDBD0707070759
:1000D3003D3D3D3DF0F0F0F081818181F7F7F7F789
:1000E300DEDEDEDE7B7B7B7B1E1E1E1E0000000031
:1000F300C0C0C0C003030303000000007878787811
:10010300DEDEDEDE030303031E1E1E1E7878787810
:10011300C0C0C0C07B7B7B7BEFEFEFEFBDBDBDBD40
:100123000F0F0F0F80808080E0E0E0E0818181810C
:1001330000000000BCBCBCBCEFEFEFEF818181810C
:100143000F0F0F0FBCBCBCBCE0E0E0E0BDBDBDBD0C
:10015300C03008080838000007182020221E0200BB
:100163000000C038E0000000203C230202273820B2
:1001730008F8F800F8F80800203F013E013F20008E
:1001830008F88888E8081000203F20202320180062
:10019300000000000000000000000000000000005C
:1001A300E01008080810E0000F10202020100F00B6
:1001B3000878880000C83808000007380E010000DE
:1001C30008F88888E8081000203F20202320180022
:1001D30008F8888888887000203F2000030C3020AE
:1001E30008F800F800F8080000033E013E03000091
:1001F30008F88888E8081000203F202023201800F2
:1002030008F8080000000000203F202020203000D4
:10021300C0300808080838000718202020100800FC
:10022300E01008080810E0000F10202020100F0035
:1002330008F8F800F8F80800203F013E013F2000CD
:1002430008F88888E8081000203F202023201800A1
:100253002020101028242229B26428101020200006
:1002630000FC0404FC20104C4B484848C808080014
:1002730000F808FF08F82018C808090E8828180095
:100283000080809F4141211D0121215F40800000AA
:10029300000F04040F0030484442424140407000C4
:1002A3002063211F111930003F4442414040780030
:1002B3008060F807202424FE2220FF2021A62000AE
:1002C30000003E2222BE6222223E22223E00000085
:1002D3000004FF242424FF0400FC4444C4424000DF
:1002E3000808080808F8898E88888888080808009C
:1002F300202020FF2020080808FF080808F8000035
:100303000000FF000444827F814027182641F0004B
:10031300808484424549312111090503000000000E
:1003230088482F0909192FC8601F0000FF0000002B
:1003330000804020180700004080403F000000007C
:100343001030100F884821110D030D112141810038
:100353001060028C0008F94EC820584F48C80800A6
:100363000008488808C838404040FF2022AC2000DD
:10037300404042CC00504EC8487FC8484840000027
:100383001010FF100082864A52A2524A86808000D3
:1003930004047E8140300F407F0044847F040400C6
:1003A3000020100C03041880402017182641F00089
:1003B3000040201F20504C4340404F50505C4000B1
:1003C30042827F010010121212FF1212121000005B
:1003D300000022322AA6A262211109810100000035
:1003E3002030AC63300088C8A8998E88A8C88800DC
:1003F30080804020900804030408902040808000FF
:100403002030AC63300082621E020242827E000012
:10041300004222130B42827E02020A12234600008C
:1004230022672212128040300F00003F40407100CB
:10043300008040300F0000000000FF0000000000BB
:1004430022672212120100FE4242424242FE000093
:10045300000022322AA6A2622111098101000000B4
:100463002030AC63300088C8A8998E88A8C888005B
:10047300404042CC0040A09E8282829EA020200069
:10048300001715D55557557D555755D515170000E8
:10049300004222130B42827E02020A12234600000C
:1004A30022672212128040300F00003F404071004B
:1004B3000000003F908840432C1028464180800074
:1004C3004040407F555555555555557F4040400058
:1004D300F0E4CCE88E6CC60080C0E0F0F8FC0000CD
:1004E300000103070F1F000080C0E0F0F8FC00804C
:1004F300C0E0F0F8FC000000000103070F1F00003C
:100503000103070F1F000000FCF8F0E0C0800000AB
:100513001F0F07030100000000F808080808080877
:1005230008080808080808080808080888888808C8
:1005330008080808F800000000FF000000000000A1
:1005430000000000F010F000FC04FC00FF007F40FE
:10055300C0000000FF00000000FF000001000001D8
:100563000101070407001F101F007F407F000000E8
:1005730000000000FF000000000F0808080808083A
:1005830008080808080808080808080808080808E8
:10059300080808080F00000000F808080808080801
:1005A30008080808080808080808080808888808C8
:1005B30008080808F800000000FF00008080000021
:1005C300000000040C0400000000E08000010100B2
:1005D30000000000FF00000000FF000000E1010038
:1005E30000C0C0C0000000E00000000080E0007018
:1005F3003060C000FF000000000F08080A0B0B0A60
:10060300080B0B0B0A0B0A0B0A0809090B09090B48
:10061300080B0B080F000000024010FF03534010AB
:10062300FF03D34010FF04530102FF051AFF059A8D
:10063300FF0253FF02B330501010FF04EA0810FF0B
:10064300050A2020FF051A3010FF025300000000A6
:0C0653000000000000000000000000009B
:102BDC007FE2122C537F05122CB67F2F122C537FC1
:102BEC00AF122C537F23122C537F81122C537F2F27
:0D2BFC00122C537FC8122C537FA0022C53C3
:0E2CC700C2B17FC8122CB6D2B17FC8022CB6A3
:102CB600E4FDEDC39F5009E4FE0EBE32FC0D80F22A
:012CC60022EB
:102C2F0075A0FF7F0A122CB6AFA0530701EFD39404
:102C3F000050F07F0A122CB6AFA0530701EFC394D8
:032C4F000140F051
:012C5200225F
:0421B900AB07AA06C0
:1021BD00900000E4FC75A0FF7F0A122CB6AFA0754D
:1021CD00900C530701D3E5829BE5839A40030222CD
:1021DD007EEFC3940150047C01802AAFA053070207
:1021ED00EFC3940150047C02801BAFA0530704EF92
:1021FD00C3940150047C03800CC3E5829BE5839A54
:10220D00506FA380B3EC24FE60231460422402704F
:10221D00A77F0A122CB6AFA0530701EFC39401504C
:10222D0097C3E5829BE5839A508EA380D87F0A12CF
:10223D002CB6AFA0530702EFC3940140030221C592
:10224D00C3E5829BE5839A40030221C5A380B67F37
:10225D000A122CB6AFA0530704EFC394014003023A
:10226D0021C5C3E5829BE5839A40030221C5A38066
:06227D0094E4F590AF04AB
:012283002238
:042A4200AB07AA062E
:102A460075A0FF9000007F0A122CB6AFA0530701B5
:102A5600EFD39400400BE5829BE5839A5003A38055
:102A6600E57F0A122CB6AFA0530701EFC3940150BD
:102A76000CC3E5829BE5839A5003A380E4AE83AF43
:0C2A8600827C007D3212138DAE04AF057F
:012A92002221
:10257D00E4FBFAF514F51575A0FF7F0A122CB6AF22
:10258D00A075900C530701EFC3940150087514000A
:10259D00751501802DAFA0530702EFC394015008AC
:1025AD00751400751502801AAFA0530704EFC3947C
:1025BD0001500875140075150380070BBB00010A47
:1025CD0080B8E51470B4E51524FE601E1460322445
:1025DD000270A77F0A122CB6AFA0530701EFC39468
:1025ED000150350BBB00010A80D87F0A122CB6AF03
:1025FD00A0530702EFC39401501E0BBB00010A80CC
:10260D00C17F0A122CB6AFA0530704EFC39401503B
:0F261D00070BBB00010A80AAE4F590AE14AF15BD
:01262C00228B
:102C5300C2B2C2B0E4FEC296EF30E704D29780025C
:0E2C6300C297EF25E0FFD2960EBE08EAD2B06F
:012C71002240
:0F2B8000EBC43333335480F9EBC313FC49FBFF31
:102B8F00D2B2C2B0E4FEC296EF30E704D297800211
:0E2B9F00C297EF25E0FFD2960EBE08EAD2B034
:012BAD002205
:072CD500AF14122C77AF16BB
:072CDC00EF44B0FF022C538E
:052C7200122CDCE4FF60
:022C7700AD07A7
:102C7900ED540FFF122C53EDC4540FFF43071002FC
:022C89002C53CA
:1028F200E4FCFF122C72E4FD7F01122B8F0DBD84CC
:10290200F77F05122C72E4FD7F80122B8F0DBD84A0
:10291200F7E4FF122CDCE4FCE4FF122C777FFF12B9
:102922002B8FAF04122CDC0CBC07EDE4FF122CDC65
:10293200E4FC7F77122C777FFF122B8FAF04122CCF
:05294200DC0CBC07EDF8
:01294700226D
:102759007FE87E03122A42900001EEF0A3EFF0E435
:01276900FF70
:02276A00AB07BB
:10276C00E4F514FAAF14122C72E4FD122B808B805A
:10277C000DBD40F7EB131313541FFBE4FDEBC433F7
:10278C0033335480F9EBC313FCAF03122B8F8B80C4
:10279C000DBD40E9EB33333354F8FBE4FD122B80D1
:1027AC008B80EB131313541FFBFF122B8F8B80EBBF
:1027BC0033333354F8FB0DBD80E305140AEA640986
:0227CC0070A2F9
:0127CE0022E8
:1027CF001228F27BFF7A0179E37520077521087DC6
:0527DF00027C007F1EDA
:0627E4008F1A8C1B8D1CF6
:1027EA00851C23E4F522E522C395205041E4FCAF81
:1027FA001A122C77AF1C122CDCE4FDEDC395215084
:10280A0011121303FF122B8F740129F9E43AFA0DFE
:10281A0080E9051CE51C7002051B0CBC02D1751B66
:0E282A000085231CE521251AF51A052280B829
:01283800227D
:06262D008F248C258D2690
:10263300AC26E52C7049F52EE52A131313541FFF1E
:10264300E52EC39F5032AF26122CDCAF24122C7719
:10265300E4F52DE52DC3952B5012121303FF122B16
:102663008F740129F9E43AFA052D80E70526E5265A
:1026730070020525052E80C0EC752500F52622E4A1
:10268300F52EE52A131313541FFFE52EC39F503372
:10269300AF26122CDCAF24122C77E4F52DE52DC3E5
:1026A300952B5013121303F4FF122B8F740129F986
:1026B300E43AFA052D80E60526E526700205250590
:0A26C3002E80BFAF047525008F269E
:0126CD0022EA
:0620E7008F2F8C308D31BB
:1020ED00AC31E5377063F53AE536C4540FFFE53A88
:1020FD00C39F40030221B8E4F539E535131313549A
:10210D001FFFE539C39F5037AF31122CDCAF2F12B3
:10211D002C77E4F538E536C4540FFFE538C39F50EE
:10212D0012121303FF122B8F740129F9E43AFA05E9
:10213D003880E20531E53170020530053980BBECA0
:10214D00753000F531053A809FE4F53AE536C45413
:10215D000FFFE53AC39F5053E4F539E535131313DB
:10216D00541FFFE539C39F5038AF31122CDCAF2F10
:10217D00122C77E4F538E536C4540FFFE538C39FCC
:10218D005013121303F4FF122B8F740129F9E43A43
:10219D00FA053880E10531E53170020530053980E9
:0B21AD00BAEC753000F531053A80A156
:0121B8002204
:061B3E007B46FAFC7F016A
:0A1B44008F148C158D168A178B186C
:101B4E00AB16C3E518951BFFE5179400FE7C007DD0
:101B5E00021213E2E5142FFAAE19AF1A7C007D08BB
:101B6E001213E2E51C131313541FFDC3EF9DFFEE7A
:101B7E009400FE7C007D021213E2E5162FF9651625
:101B8E007002E5157003021C2DE4F522C3EB99FFDC
:101B9E00E523C39F5033122CD5E4F5217E00E518C2
:101BAE002514FFEE3517FEC3E5219FEE6480F87411
:101BBE0080985009AF20122B8F052180DF0516E586
:101BCE001670020515052380C3E51C131313541F4D
:101BDE002516F516E43515F515E4F522C3EB99FF38
:101BEE00E523C39F5033122CD5E4F5217E00E51872
:101BFE002514FFEE3517FEC3E5219FEE6480F874C1
:101C0E0080985009AF20122B8F052180DF0516E535
:101C1E001670020515052380C3EB751500F516EA3F
:101C2E0065147003021CB4E4F522E51C131313545F
:101C3E001FFFE522C39F5026122CD5E4F521C3EADF
:101C4E009514FFE521C39F5009AF20122B8F05215C
:101C5E0080EC0516E51670020515052280CCEB7595
:101C6E001500F516E4F522E51C131313541FFFE5BA
:101C7E0022C39F502AE51B2AFF122CD7E4F521C35D
:101C8E00EA9514FFE521C39F5009AF20122B8F0553
:101C9E002180EC0516E51670020515052280C8AFE9
:101CAE00037515008F16AF02E9FD7C00AB1DAA1E51
:0E1CBE00A91F851C2A851B2B85202C02262D94
:062948008F258C268D276F
:10294E0085272EE4F52DE52DC3952B5041E4FCAFE4
:10295E0025122C77AF27122CDCE4FDEDC3952C50FD
:10296E0011121303FF122B8F740129F9E43AFA0D99
:10297E0080E90527E527700205260CBC02D17526D5
:0E298E0000852E27E52C2525F525052D80B882
:01299C002218
:1024C0008F24EDB40800400302257C9024D2F82824
:1024D00028730224EA0224FB02250C02251D022592
:1024E0002E02253F022550022561E52475F005A442
:1024F0002403FF7BFF7A00799B8075E52475F00546
:10250000A42403FF7BFF7A0079C38064E52475F07F
:1025100005A42403FF7BFF7A0079BB8053E5247573
:10252000F005A42403FF7BFF7A0079DB8042E524D9
:1025300075F005A42403FF7BFF7A0079B38031E5B1
:102540002475F005A42403FF7BFF7A0079D3802053
:10255000E52475F005A42403FF7BFF7A0079CB8086
:102560000FE52475F005A42403FF7BFF7A0079AB07
:0D257000752B01752C04E4FDFC1229482296
:102344008F24EDB408004003022401902356F8289A
:10235400287302236E02237F0223900223A1022307
:10236400B20223C30223D40223E5E52475F005A4B5
:102374002403FF7BFF7A0079938075E52475F005CB
:10238400A42403FF7BFF7A0079FB8064E52475F0C5
:1023940005A42403FF7BFF7A0079F38053E52475B9
:1023A400F005A42403FF7BFF7A0179138042E5241E
:1023B40075F005A42403FF7BFF7A0079EB8031E5F7
:1023C4002475F005A42403FF7BFF7A01790B802098
:1023D400E52475F005A42403FF7BFF7A01790380CB
:1023E4000FE52475F005A42403FF7BFF7A0079E34D
:0E23F400752B01752C047D027C0012294822F5
:102402008F24EDB4080040030224BF902414F8285E
:10241200287302242C02243D02244E02245F02244B
:10242200700224810224920224A3E52475F005A4FB
:102432002403FF7BFF7A0079A38075E52475F005FC
:10244200A42403FF7BFF7A0179338064E52475F0CD
:1024520005A42403FF7BFF7A01792B8053E52475C1
:10246200F005A42403FF7BFF7A01794B8042E52427
:1024720075F005A42403FF7BFF7A0179238031E5FF
:102482002475F005A42403FF7BFF7A0179438020A1
:10249200E52475F005A42403FF7BFF7A01793B80D4
:1024A2000FE52475F005A42403FF7BFF7A01791B55
:0E24B200752B01752C047D047C001229482234
:072BAE00FBAD20AF1BAE1AC6
:102BB5008E218F228B23ED14600E14601224027077
:102BC50015AF22AD230224C0AF22AD23022344AFAB
:072BD50022AD2312240222AD
:0629F0008B1A8A1B891CF2
:1029F600EF1313543FF51DEF5403F51E851D827525
:102A0600830012131CFF7E03E4FCECC3951E500FDB
:102A1600ED25E025E0FDEE25E025E0FE0C80EBEE61
:102A260042076307FFEE42076307FFEF4DAB1AAAA3
:0C2A36001BA91C851D8275830002136B18
:102AE100EF1313543FFEEF5403FF8E8275830012E0
:102AF100131CFE7D03E4FCECC39F5009ED25E0258A
:102B0100E0FD0C80F2ED5206E4FCECC39F5009EEAF
:0A2B11001313543FFE0C80F2AF06D0
:012B1B002297
:081FFA008E0F8F108C118D1267
:10200200AA06A9077B01784D7C007D017E007F1026
:102012001212DDE4F514751301E51375F002A4251F
:1020220010FFE5F0350FFAA9077B01C003C001E5F7
:102032001375F002A4FFE5102408FDE4350FCD2F3F
:10204200FFED35F0A9078B1CF51D891E85108285D1
:102052000F83E0FEA3E0FFE5102408F582E4350FCC
:10206200F583E0FCA3E0FDD001D0031228398510EE
:1020720082850F8375F002E5131214C7A3E025E0F1
:10208200FF0582D5820215831582E033FEE5122F09
:10209200F582E5113EF583E0FEA3E0FFE51024089A
:1020A200F582E4350FF58375F002E5131214C7E0EB
:1020B200FCA3E01228B0EF7004E5146002051405D9
:1020C20013E513C39404500302201BE5146013A804
:1020D20010AC0F7D017B017A00794D7E007F1012DA
:0420E20012DDAF1448
:0120E60022D7
:0414D3008E0F8F10D9
:1014D700E4F512751101851082850F8375F002E519
:1014E700111214C7E0FEA3E0FF851082850F8375F4
:1014F700F002E5121214C7E0FCA3E0FDC39FEC9EC7
:101507005002803DED6F7002EC6E7038E5102408D4
:10151700F582E4350FF58375F002E5111214C7E083
:10152700FEA3E0FFE5102408F582E4350FF5837587
:10153700F002E5121214C7E0FCA3E0C39FEC9E5033
:10154700038511120511E5116404708A85108285DF
:101557000F8375F002E5121214C7E0FEA3E0FF85C2
:101567001082850F83E0FCA3E0FDD3EF9DEE9C4046
:101577003EEF9DF514EE9CF513E4F5118510828579
:101587000F8375F002E5111214C7C083C082C3A38D
:10159700E09514FF0582D5820215831582E0951325
:1015A700D082D083F0A3EFF00511E511B404CDE5A7
:1015B700102408F582E4350FF58375F002E5121261
:1015C70014C7E0FEA3E0FFE5102408F582E4350F19
:1015D700F583E0FCA3E0FDD3EF9DEE9C4055EF9D26
:1015E700F514EE9CF513C3ED9514FFEC9513FED39C
:1015F700EF9400EE9400403BE4F511E5102408F564
:1016070082E4350FF58375F002E5111214C7C08324
:10161700C082C3A3E09514FF0582D5820215831506
:1016270082E09513D082D083F0A3EFF00511E51186
:10163700B404C8E5127003021760851082850F8312
:10164700E0FEA3E0FF851082850F8375F002E512A7
:101657001214C7EE8FF0121418E5102408F582E46F
:10166700350FF583E0FEA3E0FFE5102408F582E4DB
:10167700350FF58375F002E5121214C7EE8FF012DD
:101687001418851082850F8375F002E5121214C7AE
:10169700E0FEA3E0FF851082850F83E0FCA3E0FD59
:1016A700C3EF9DFFEE9C851082850F83F0A3EFF0BB
:1016B700E5102408F582E4350FF58375F002E5128D
:1016C7001214C7E0FEA3E0FFE5102408F582E43515
:1016D7000FF583E0FCA3E0FDC3EF9DFFEE9CFEE565
:1016E700102408F582E4350FF583EEF0A3EFF085BB
:1016F7001082850F8375F002E5121214C7C083C0EC
:1017070082E0FEA3E0FF851082850F83E0FCA3E063
:10171700FDC3EF9DFFEE9CD082D083F0A3EFF0E5F1
:10172700102408F582E4350FF58375F002E51212EF
:1017370014C7C083C082E0FEA3E0FFE5102408F5CC
:1017470082E4350FF583E0FCA3E0FDC3EF9DFFEED8
:091757009CD082D083F0A3EFF0D6
:011760002266
:041DED008E0F8F10B6
:101DF100E4F512ED14604E147003021E8A14700390
:101E0100021EC224036003021F04751101851082A2
:101E1100850F8375F002E5111214C7E0FEA3E0FF00
:101E2100851082850F8375F002E5121214C7E0FC5C
:101E3100A3E0D39FEC9E50038511120511E511B467
:101E410004CB021F04751101E5102408F582E43565
:101E51000FF58375F002E5111214C7E0FEA3E0FF50
:101E6100E5102408F582E4350FF58375F002E512DB
:101E71001214C7E0FCA3E0D39FEC9E50038511121E
:101E81000511E511B404C1807A75110185108285AF
:101E91000F8375F002E5111214C7E0FEA3E0FF8580
:101EA1001082850F8375F002E5121214C7E0FCA3BE
:101EB100E0C39FEC9E40038511120511E511B404A6
:101EC100CB751101E5102408F582E4350FF5837512
:101ED100F002E5111214C7E0FEA3E0FFE5102408AB
:101EE100F582E4350FF58375F002E5121214C7E0AF
:101EF100FCA3E0C39FEC9E40038511120511E5117F
:051F0100B404C1AF12A1
:011F060022B8
:0A199E008E0F8F108C118D128B1329
:1019A800AA06A9077B01784D7C007D017E007F1087
:1019B8001212DDE4F515E513147003021A4E24FE25
:1019C8007003021ABB24036003021B24E4F5148588
:1019D8001082850F8375F002E5141214C7E475F0C0
:1019E80001121418851082850F8375F002E5141210
:1019F80014C7E0FEA3E0FFD39416EE94004002055E
:101A080015EF25E0FFEE33FEE5122FF582E5113ED6
:101A1800F583E0FEA3E0FFE5102408F582E4350F26
:101A2800F58375F002E5141214C7E0FCA3E0122850
:101A3800B0EF7004E515600205150514E514C394AC
:101A480004408C021B24E4F514E5102408F582E414
:101A5800350FF58375F002E5141214C7E475F0012B
:101A6800121418E5102408F582E4350FF58375F093
:101A780002E5141214C7E0FCA3E0FDD39409EC942A
:101A88000040020515851082850F8375F002E51464
:101A98001214C7A3E025E0FF0582D5820215831240
:101AA800289BEF600205150514E514C394044099BA
:101AB800021B24E4F514E5102408F582E4350FF53B
:101AC8008375F002E5141214C774FFF5F0121418A8
:101AD800E5102408F582E4350FF58375F002E51466
:101AE8001214C7E0FCA3E0FD4C70020515851082B6
:101AF800850F8375F002E5141214C7A3E025E0FFF3
:101B08000582D58202158312289BEF7004E51560C3
:101B18000205150514E514C39404409AE5156013ED
:101B2800A810AC0F7D017B017A00794D7E007F10F3
:051B38001212DDAF15E3
:011B3D002285
:081CCC008E0F8F108C118D1298
:101CD400851282851183E0F513A3E0F514D3E5148E
:101CE4009417E51394004003021DECE51425E0FF6E
:101CF400E51333FEE5102FF582E50F3EF583E0FE94
:101D0400A3E0FF90004DEEF0A3EFF0F4FFEEF490AB
:101D1400004DF0A3EFF090004DE0FEA3E07807CE75
:101D2400C313CE13D8F9FF90004DEEF0A3EFF04E9D
:101D34006003021DDEF515F516851282851183E018
:101D4400FEA3E0FFC3E5149FFFE5139EFED3E51653
:101D54009FE5159E5077E51425E0FFE51333FEEF6C
:101D64002510FDEE350FFCE51625E0FFE51533FEE5
:101D7400C3ED9FFFEC9EFEF583EF24FEF582E58321
:101D840034FFF583E0FBA3E08F828E83CBF0A3EBDB
:101D9400F0C3E5149516FFE5139515FEC006C007BC
:101DA400E51625E0FFE51533FEC3ED9FFFEC9E8F9E
:101DB40082F583E0FCA3E0FDD007D0061222C30520
:101DC40016E5166003021D3D0515021D3D851282B0
:101DD400851183E475F0011214180514E5146003E9
:081DE400021CE10513021CE1E1
:011DEC0022D4
:102284001582E033FE74092FF58274003EF583EC69
:10229400F0A3EDF0E50A25E0243DF582E43400F5F1
:1022A40083E0FAA3E0FB25E0FFEA33FE74092FF58F
:0F22B4008274003EF583E0FCA3E0FDAF03AE02B1
:0822C3008E1A8F1B8C1C8D1D6F
:1022CB0090006274E0F0A3E4F0851C1E851D1FF5E1
:1022DB0020900062E0551CFEA3E0551DD39400EE48
:1022EB0094004031E52075F003A4FFE51DAE1CA85A
:1022FB0007088005C333CE33CED8F9F51D8E1CE508
:10230B001CC4135407F51D751C00122BAE851E1C27
:10231B00851F1D8004E4122BAE900062E0FEA3E04B
:10232B007803CEC313CE13D8F9F0EE900062F0050C
:08233B0020E520C39403409942
:012343002277
:081F07008E1A8F1B8A1E8B1F2E
:101F0F009000627480F0A3E4F0852325A304F0858C
:101F1F001B26851F27D3E51B9416E51A9400501F27
:101F2F00C3E51A940050028016D3E51F9409E51EED
:101F3F009400500BC3E51F9401E51E94005005E477
:101F4F00900064F0900064E0D394005003021FF4FB
:101F5F00752801C3E528951FE4951E500F90006268
:101F6F00E0C313F0A3E013F0052880E7900062E0D0
:101F7F005CFEA3E05DD39400EE94004062E4F5288C
:101F8F00E528C39523505EE524B40203E48040C3E3
:101F9F00E5239528F52514FFAB20AA21A922122AA3
:101FAF00E1EF14600E14600F1460102403700E150F
:101FBF0026800A05278006052680021527E526B507
:101FCF001B13E4B51A0FE527B51F0AE4B51E0690DB
:101FDF000064F080109000647402F0052880A190D6
:0A1FEF0000647401F0900064E0FF4C
:011FF90022C5
:102A93001582E033FE74092FF58274003EF583E05E
:102AA300F50DA3E0F50EE50A25E02445F582E434AF
:082AB30000F583E0FEA3E0FF43
:042ABB008E1A8F1BC5
:102ABF007F007E80E4FDE51B24FFFBE51A34FFFA5F
:102ACF00EDC39BE49A500AEEC313FEEF13FF0D8084
:012ADF00E511
:012AE00022D3
:10289B001582E033FEE5122FF582E5113EF583E05C
:0C28AB00FEA3E0FFED24FFFDEC34FFFC79
:0428B7008E168F17D3
:1028BB0090005D7480F0A3E4F0FBAF0590005DE049
:1028CB00FEA3E0A807088005CEC313CE13D8F9FFEB
:1028DB0090005DEEF0A3EFF0E5165EFEE5175F4EA0
:0628EB0060027B01AF0357
:0128F10022C4
:10299D008D14AA07D3EA648094804014EA2BFBE5DA
:1029AD00142401FDE433FCEBFF7E0012138DAB0507
:1029BD00C3EA648094805028EAF404FFEB6480F845
:1029CD00EF6480985005EA2BFB8015C3EF9BFBE568
:1029DD00142401FDE433FCEBFF7E0012138DAB05D7
:0329ED00AF032213
:102CA200121303D39400400974FF1213497F018069
:032CB20002E4FF3A
:012CB50022FC
:102C090090000112131CFF121303C39F500D74018E
:102C190012134990001F7402F08005E490001FF020
:052C290090001FE0FF18
:012C2E002283
:102C8B00E4FCFD7B6D7A4E79C67841121478EF2403
:072C9B0039FFEE3430FE2288
:102B5000751001AF09AE08122C8B8E088F09AB10CF
:022B6000AD0FB7
:042B62008E1A8F1B1D
:102B6600C3ED9B900062F0FD7C0012138D7E00ED9C
:092B76002BF51BEE3CF51AAF1B18
:012B7F002233
:0A2839008E158F168B198A1A891B61
:1028430012142EFF90005DE5F0F0A3EFF0AB1CAA8D
:102853001DA91E12142EFFAEF090005FEEF0A3EF41
:10286300F02516CFE5153ECFC39DCF9CAB19AA1A11
:10287300A91B8FF012145990005DE0FEA3E0FFC383
:10288300ED9FFFEC9EFEE5162FFFE5153EAB1CAA60
:082893001DA91E8FF00214596B
:10176100E4900003F078067C007D017BFF7A067926
:101771001AFE7F021212DD78087C007D017BFF7A60
:1017810006791C7E007F051212DD780D7C007D013B
:101791007BFF7A0679217E007F051212DD78127CAB
:1017A100007D017BFF7A0679267E007F051212DD1E
:1017B100E4FF12276A751900751A10781B7C007DE9
:1017C100007B017A0079087E007F051212DD752009
:1017D100FF7B467A00E4FDFC7F01121B4475190072
:1017E100751A10781B7C007D007B017A00790D7ED3
:1017F100007F051212DDE4F5207D02121B3E7519F2
:1018010000751A10781B7C007D007B017A0079122B
:101811007E007F051212DDE4F5207D04121B3E904F
:101821000003E0600302199812257DA3EFF0D39421
:10183100015003021962900006E014602914604906
:101841002402706C751900751A10781B7C007D00DC
:101851007B017A0079087E007F051212DDE4F52014
:101861007B46FAFD8044751900751A10781B7C00BF
:101871007D007B017A00790D7E007F051212DDE487
:10188100F5207B46FA7D028021751900751A1078C2
:101891001B7C007D007B017A0079127E007F05129E
:1018A10012DDE4F5207B46FA7D04FC7F01121B4426
:1018B100900004E024FE600E14601624027020E4FF
:1018C100900005F080197B017A007906122CA28024
:1018D100097B017A007906122C09900005EFF0903E
:1018E1000006E014602C14604F2402707475190016
:1018F100751A10781B7C007D007B017A0079087EC7
:10190100007F051212DD7520FF7B467A00E4FDFCA5
:10191100804A751900751A10781B7C007D007B01C7
:101921007A00790D7E007F051212DD7520FF7B465E
:101931007A007D027C008024751900751A10781BCD
:101941007C007D007B017A0079127E007F051212F6
:10195100DD7520FF7B467A007D047C007F01121B30
:1019610044900004E064016003021820900006E046
:1019710014601314601924026003021820900003FC
:101981007402F00218209000037405F0021820E49C
:0C199100900003F0021820900003E0FF1B
:01199D002227
:100B8800E4900003F0A3F078067C007D017BFF7AF7
:100B980006792BFE7F021212DD78087C007D007B2F
:100BA800FF7A06792D7E007F061212DDE490000898
:100BB800F0780E7C00FD7BFF7A067933FE7F061203
:100BC80012DD78097C007D017BFF7A0679397E0089
:100BD8007F021212DD780B7C007D017BFF7A06799B
:100BE8003B7E007F051212DD78107C007D017BFFC3
:100BF8007A0679407E007F051212DD78157C007D2B
:100C0800017BFF7A0679457E007F051212DD781A8E
:100C18007C007D017BFF7A06794A7E007F051212EF
:100C2800DDE4FF12276A751900751A10781B7C001D
:100C38007D007B017A00790B7E007F051212DDE4CE
:100C4800F5207B10FA7D03FC7F04121B4475190004
:100C5800751A10781B7C007D007B017A0079107E64
:100C6800007F051212DDE4F5207B08FA7D03FC7F86
:100C78006D121B44751900751A20781B7C007D00C5
:100C88007B017A0079157E007F051212DD7520FF41
:100C98007B287A007D027C007F28121B447519008E
:100CA800751A10781B7C007D007B017A00791A7E0A
:100CB800007F051212DDE4F5207B28FAFD020EFA0A
:100CC800900003E06003020F0312257DA3EFF0D329
:100CD80094015003020E16900006E014602D146073
:100CE8005024027073751900751A10781B7C007DEA
:100CF800007B017A00790B7E007F051212DDE4F596
:100D0800207B10FA7D03FC7F04804A751900751A50
:100D180020781B7C007D007B017A0079157E007F9E
:100D2800051212DDE4F5207B28FA7D02FC7F28807D
:100D380024751900751A10781B7C007D007B017AD8
:100D48000079107E007F051212DDE4F5207B08FA99
:100D58007D03FC7F6D121B44900004E024FE600EAE
:100D680014601624027020E4900005F080197B01BD
:100D78007A007906122CA280097B017A0079061282
:100D88002C09900005EFF0900006E014602F146025
:100D98005424027079751900751A10781B7C007D2F
:100DA800007B017A00790B7E007F051212DD752029
:100DB800FF7B107A007D037C007F04804E7519004C
:100DC800751A20781B7C007D007B017A0079157EDE
:100DD800007F051212DD7520FF7B287A007D027CDA
:100DE800007F288026751900751A10781B7C007DF5
:100DF800007B017A0079107E007F051212DD7520D4
:100E0800FF7B087A007D037C007F6D121B449000F5
:100E180004E064016003020CC8900006E01460134B
:100E280014603124026003020CC89000037401F0BE
:100E3800020CC8900008E0FF70099000037403F0EA
:100E4800020CC8EF64016003020CC890000374042C
:100E5800F0020CC8E4900003F0900008E0FB7D016C
:100E68007F0112299DEFF075F003A42408F886038A
:100E780008E6FA08E6F9900017EBF0A3EAF0A3E910
:100E8800F0EF75F003A4240EF8860308E6FA08E6E6
:100E9800F990001CEBF0A3EAF0A3E9F074092FF530
:100EA80082E43400F583E090001AF0751900751A91
:100EB80010781B7C007D007B017A00791A7E007F08
:100EC800051212DDE4F5207B50FAFDFC7F14121B9D
:100ED80044751900751A20781B7C007D007B017A07
:100EE8000079157E007F051212DDE4F5207B28FAD3
:100EF8007D02FC7F28121B44020CC8900003E0FF0F
:010F080022C6
:1026CE009000007401F0E4FF12276A1227D27FF403
:1026DE007E011221B9900000E024FE601514601CEA
:1026EE00146034146053146059240570E812176195
:1026FE008003120B88900000EFF080D9E4FF1227C0
:10270E006A1227CF1227591228F2900001E0FEA379
:10271E00E0FF120F098019E4FF12276A1227CF1269
:10272E0027591228F2900001E0FEA3E0FF12065F87
:10273E009000007402F00226E39000007401F00293
:0B274E0026E39000007401F00226E377
:040F09008E088F09B6
:100F0D00751301751405E4F515F516F51775180427
:100F1D0075190BF50AE50A25E02434F582E4340051
:100F2D00F583E4F0A3F0050AE50AB417E8E4F50A41
:100F3D007403250AF582E43400F583E4F0050AE52F
:100F4D000AB432ECE4F50AE50AC3951450117B019D
:100F5D007A007903AD17AF0A1229F0050A80E8E48B
:100F6D00F50AC3E519950A25E02434F582E4340029
:100F7D00F5837410F0A3E4F0050AE50AB405E3E483
:100F8D00F50AC3E519950AFFE49400FE7B047D0183
:100F9D00122BB5050AE50AC3940540E6E513D39473
:100FAD000050030211F57FF07E001221B9EF1424D9
:100FBD00FE601304701CE517C394034005E4F51798
:100FCD0080100517800CE517D39400500375170496
:100FDD001517E51364017021F50AE50AC395145040
:100FED0018E50A04FF7B017A007903122AE1AD07A7
:100FFD00AF0A1229F0050A80E1E51414FF7B017A8E
:10100D00007903AD171229F0E51714600E14600F67
:10101D001460102403700E0519800A15188006152A
:10102D001980020518E51925E02434F582E4340011
:10103D00F583E0FCA3E0FDAF197E00AB187A0075D7
:10104D002001752100752203851423851324121F99
:10105D00078F13E51925E02434F582E43400F58378
:10106D00E0F511A3E0F512AF187E00122ABBE511D1
:10107D004EFEE5124FFFE51925E02434F582E434E8
:10108D0000F583EEF0A3EFF0E51925E02434F582A9
:10109D00E43400F583E0FCA3E0FDAF197E001222DD
:1010AD00C3E513B402020514E513640160030211D4
:1010BD0075F50B85180CF50D85190EF50AE50AC3A6
:1010CD00951450437B017A007903AF0A122AE1EFA0
:1010DD0014601414601B14602224037026E50E1591
:1010ED000E7020150D801C050CE50C7016050B807F
:1010FD0012050EE50E700C050D8008E50C150C7033
:10110D0002150B050A80B6E50E25E0FFE50D33FE51
:10111D0074342FF58274003EF583E0FEA3E0F4F500
:10112D0012EEF4F511AF0CAE0B122ABBEF4212EE1C
:10113D004211E512F4FDE511F4FCE50E25E0FFE5A5
:10114D000D33FE74342FF58274003EF583ECF0A35D
:10115D00EDF074342FF58274003EF583E0FCA3E0CE
:10116D00FDAF0EAE0D1222C305150516E51664086A
:10117D006003020FA9750F17122B50750D008F0EFE
:10118D00750F09122B50750B008F0CE50E25E0FF26
:10119D00E50D33FE74342FF58274003EF583E0F5D2
:1011AD0011A3E0F512AF0CAE0B122ABBE5114EFCEC
:1011BD00E5124FFDE50E25E0FFE50D33FE74342FEE
:1011CD00F58274003EF583ECF0A3EDF074342FF549
:1011DD008274003EF583E0FCA3E0FDAF0EAE0D1270
:1011ED0022C3E4F516020FA97BFF7A01795375200E
:1011FD00097521087D017C007F191227E4022C2F2F
:04065F008E088F0969
:100663009000057401F0A3F0900037E4F0A3740444
:10067300F0A3E4F0A37403F0A37407F0A37401F0F0
:10068300783D7C00FD7BFF7A06794F7E007F101258
:1006930012DD900007E4F0A37417F090003BE0FD37
:1006A300A3E0FBAF09AE08122B62900006EFF0AF98
:1006B30009AE08122C8B8E088F09E4F50AE50A258A
:1006C300E02409F582E43400F583E4F0A3F0050A9D
:1006D300E50AB417E8900005E07003020B70AF0958
:1006E300AE08122C8B8E088F0990003BE0FDA3E02F
:1006F300FB122B62900006EFF014B40700400302D4
:10070300099E90071375F003A4C58325F0C5837371
:100713000207280207820207D9020833020893025C
:1007230008F2020942900039E0FEA3E0FF90003D89
:10073300EEF0A3EFF0A3EEF0A3EFF0A3EEF0A3EF40
:10074300F0A3EEF0A3EFF0900037E0FEA3E0FF90FC
:100753000045EEF0A3EFF02401FFE43EA3F0A3EF86
:10076300F0900037E0FCA3E0FD2402FEE43C90009F
:1007730049F0A3CEF0ED2403FEE43CA302088C90E1
:100783000039E0FEA3E0FF90003DEEF0A3EFF0A3FD
:10079300EEF0A3EFF024FFFFEE34FFFEA3F0A3EF90
:1007A300F0A3EEF0A3EFF0900037E0FEA3E0FF909C
:1007B3000045EEF0A3EFF02401FFE43EFEA3F0A317
:1007C300EFF0A3EEF0A3EFF0900037E0FFA3E0908B
:1007D300004BCF0208EB900039E0FEA3E0FF90004E
:1007E3003DEEF0A3EFF0A3EEF0A3EFF024FFFFEE56
:1007F30034FFFEA3F0A3EFF0A3EEF0A3EFF090001D
:1008030037E0FEA3E0FF900045EEF0A3EFF02401F4
:10081300FFE43EA3F0A3EFF0900037A3E0FF9000C6
:1008230049EEF0A3EFF024FFFFEE34FFA30208EB41
:10083300900039E0FEA3E0FF90003DEEF0A3EFF05F
:10084300A3EEF0A3EFF024FFFFEE34FFFEA3F0A32B
:10085300EFF0A3EEF0A3EFF0900037E0FEA3E0FF8C
:10086300900045EEF0A3EFF02401FFE43EFEA3F079
:10087300A3EFF0A3EEF0A3EFF0900038E02402FE24
:10088300900037E0340090004BF0A3CEF002099EB5
:10089300900039E0FEA3E0FF90003DEEF0A3EFF0FF
:1008A300A3EEF0A3EFF0A3EEF0A3EFF024FFFFEE2F
:1008B30034FFA3F0A3EFF0900037E0FEA3E0FF9036
:1008C3000045EEF0A3EFF02401FFE43EA3F0A3EF15
:1008D300F0900038E02402FF900037E03400FE90EF
:1008E3000049F0A3EFF0A3EEF0A3EFF002099E900E
:1008F3000039E0FEA3E0FF90003DEEF0A3EFF0A38C
:10090300EEF0A3EFF0A3EEF0A3EFF024FFFFEE343D
:10091300FFA3F0A3EFF0900037E0FEA3E0FF900009
:1009230045EEF0A3EFF02401FFE43EA3F0A3EFF0C4
:10093300900037E0FCA3E0FD2402FEE43C804F90EE
:100943000039E0FEA3E0FF90003DEEF0A3EFF0A33B
:10095300EEF0A3EFF0A3EEF0A3EFF024FFFFEE34ED
:10096300FFA3F0A3EFF0900037E0FEA3E0FF9000B9
:1009730045EEF0A3EFF02401FDE43EFCA3F0A3ED6C
:10098300F0900038E02402FE900037E0340090003D
:1009930049F0A3CEF0A3ECF0A3EDF0E4F50AE50AE9
:1009A30025E0243DF582E43400F583A3E025E0FF50
:1009B3000582D582021583122A93E50D4EFCE50EBE
:1009C3004FFDE50A25E0243DF582E43400F583A3D9
:1009D300E025E0FF0582D582021583122284050AF1
:1009E300E50AC3940440B7900006E070030206D8FA
:1009F3007FC87E001221B98F0CE4F50AE50A25E0D1
:100A0300243DF582E43400F583A3E025E0FF05826D
:100A1300D5820215831582E033FE74092FF58274A3
:100A2300003EF583E0FEA3E0F4F50EEEF4F50D12BF
:100A33002AA9EF420EEE420DE50EF4FDE50DF4FC9E
:100A4300E50A25E0243DF582E43400F583A3E0259F
:100A5300E0FF0582D582021583122284050AE50A86
:100A6300C394044097E50C24FE601E1460272402FF
:100A730070327E007F3D7C007D09121FFAEF7024E7
:100A83007E007F3D1214D3801B7E007F3D7C007D62
:100A9300097B01800A7E007F3D7C007D097B031278
:100AA300199E8F0B7E007F3D7C007D09E4FB1219AC
:100AB3009E8F0BE4F50AE50A25E0243DF582E43434
:100AC30000F583A3E025E0FF0582D582021583129A
:100AD3002A93E50D4EFCE50E4FFDE50A25E0243D86
:100AE300F582E43400F583A3E025E0FF0582D58297
:100AF300021583122284050AE50AC3940440B7E56C
:100B03000B70030209EA7E007F3D7D02121DEDEFAB
:100B130025E0243DF582E43400F583E0FEA3E0FF05
:100B2300900003EEF0A3EFF0D3900008E09F900055
:100B330007E09E400F900003E0FFA3E0900007CF83
:100B4300F0A3EFF07E007F097C007D07121CCCC36D
:100B5300900008E09404900007E094005005E490AE
:100B63000005F0E4900006F0F50B0209EA7BFF7A3A
:100B73000179537520097521087D017C007F1912C5
:050B830027E4022C2F05
:102B1C00122CC7122BDCE4FF12276A7BFF7A007998
:102B2C00037520097521087D017C007F011227E4C3
:102B3C007FE87E031221B91226CEE4FF12276A1217
:042B4C002C2F80CCDE
:10120D00E709F608DFFA8046E709F208DFFA803EC3
:10121D0088828C83E709F0A3DFFA8032E309F608B0
:10122D00DFFA8078E309F208DFFA807088828C8318
:10123D00E309F0A3DFFA806489828A83E0A3F608CC
:10124D00DFFA805889828A83E0A3F208DFFA804CA6
:10125D0080D280FA80C680D4806980F2803380107D
:10126D0080A680EA809A80A880DA80E280CA8033E6
:10127D0089828A83ECFAE493A3C8C582C8CCC5835E
:10128D00CCF0A3C8C582C8CCC583CCDFE9DEE7802E
:10129D000D89828A83E493A3F608DFF9ECFAA9F0AD
:1012AD00EDFB2289828A83ECFAE0A3C8C582C8CC03
:1012BD00C583CCF0A3C8C582C8CCC583CCDFEADE1C
:1012CD00E880DB89828A83E493A3F208DFF980CC7E
:1012DD0088F0EF60010E4E60C388F0ED2402B40477
:1012ED000050B9F582EB2402B4040050AF2323451E
:0612FD00822390125D73D4
:10130300BB010689828A83E0225002E722BBFE02E8
:09131300E32289828A83E493221B
:10131C00BB010CE58229F582E5833AF583E0225086
:10132C0006E92582F8E622BBFE06E92582F8E222D0
:0D133C00E58229F582E5833AF583E49322EA
:10134900BB010989828A83F8E028F022500327F734
:1013590022BBFE05F8E328F3228A838982F8E49305
:02136900282238
:10136B00F8BB010DE58229F582E5833AF583E8F0B8
:10137B00225006E92582C8F622BBFE05E92582C864
:02138B00F2224C
:10138D00BC000BBE0029EF8DF084FFADF022E4CC44
:10139D00F875F008EF2FFFEE33FEEC33FCEE9DEC0D
:1013AD00984005FCEE9DFE0FD5F0E9E4CEFD22ED53
:1013BD00F8F5F0EE8420D21CFEADF075F008EF2F9D
:1013CD00FFED33FD4007985006D5F0F222C398FD8E
:0513DD000FD5F0EA222B
:1013E200C2D5EC30E709B2D5E4C39DFDE49CFCEE26
:1013F20030E715B2D5E4C39FFFE49EFE12138DC3FE
:10140200E49DFDE49CFC800312138D30D507C3E4F8
:061412009FFFE49EFE2294
:10141800C5F0F8A3E028F0C5F0F8E582158270025F
:061428001583E038F022FC
:10142E00BB010A89828A83E0F5F0A3E02250068789
:10143E00F009E71922BBFE07E3F5F009E31922894B
:0B144E00828A83E493F5F0740193227E
:10145900BB010A89828A83F0E5F0A3F0225006F7DE
:0F14690009A7F01922BBFE06F3E5F009F31922DB
:10147800E88FF0A4CC8BF0A42CFCE98EF0A42CFC13
:101488008AF0EDA42CFCEA8EF0A4CDA8F08BF0A491
:101498002DCC3825F0FDE98FF0A42CCD35F0FCEBF0
:1014A8008EF0A4FEA9F0EB8FF0A4CFC5F02ECD39B5
:0F14B800FEE43CFCEAA42DCE35F0FDE43CFC2222
:0C14C700A42582F582E5F03583F5832230
:00000001FF
